S00D0000466C696E6B2E7372656323
S11300004BC0000067C0000065C0000063C0000072
S113001061C000005FC000005DC000005BC0000064
S113002059C0000057C0000055C0000053C0000074
S113003051C000004FC000004DC000004BC0000084
S113004049C0000047C0000045C0000043C0000094
S113005041C000003FC000003DC000003BC00000A4
S113006039C0000037C0000035C0000033C00000B4
S113007031C000002FC000002DC000002BC00000C4
S113008029C0000027C0000025C0000023C00000D4
S113009021C000001FC0000011241FBECFEFD0E21A
S11300A0DEBFCDBF11E0A0E0B1E0EEEDF1E100E094
S11300B00BBF02C007900D92A831B107D9F721E018
S11300C0A8E1B1E001C01D92AE32B207E1F7B4D5A8
S11300D00C94ED0895CF87E084B98DE081B982E076
S11300E082B985B78F7E85BF289A00000895BF9294
S11300F0CF92DF92EF92FF920F931F93CF93DF93F0
S113010080E190E036D79093190180931801D5D2FD
S1130110C0911801D0911901CE017BD5892BB9F179
S11301208D816BE170E090E00AD79F838E83892BE9
S113013011F41D822CC0C12CD12C00E010E08BE105
S1130140B82E8D8190E008171907E4F4EE80FF8043
S1130150EC0CFD1CF7010083602FCE01BFD2FBE144
S1130160CF0ED11C009771F0FC01D7018B2D0190AB
S11301700D928A95E1F7EE81FF81D28FC18F0F5FD7
S11301801F4FDFCF809118019091190102C080E0C8
S113019090E0DF91CF911F910F91FF90EF90DF904E
S11301A0CF90BF9008950F931F93CF93DF931F9227
S11301B0CDB7DEB7FC010681178169832AD5698131
S11301C0892BA1F0862F90E0A0E0B0E00115110585
S11301D069F0F8014189528963897489481759077C
S11301E06A077B0731F0055E1F4FF0CF80E090E097
S11301F001C0C8010F90DF91CF911F910F91089515
S11302000F931F93CF93DF931F92CDB7DEB729834C
S1130210242F2F7135E076956795579547953A9534
S1130220D1F7485F5F4F6F4F7F4FE2E0440F551F98
S1130230661F771FEA95D1F78E010F5F1F4F07D313
S113024021E030E0892B11F420E030E08827992761
S1130250821B930B0F90DF91CF911F910F91089503
S11302608F929F92AF92BF92CF92DF92EF92FF92C2
S11302700F931F93CF93DF931F92CDB7DEB731E077
S1130280211101C030E03983FC01058516852785DD
S1130290308968017901E5E0F694E794D794C7942E
S11302A0EA95D1F74A015B01F5E0B694A7949794D7
S11302B08794FA95D1F7C80CD91CEA1CFB1C0F7162
S11302C0112722273327012B022B032B31F4F0E2D1
S11302D0CF0ED11CE11CF11C05C024E2C20ED11CBE
S11302E0E11CF11C242F2F718E010F5F1F4FB701EA
S11302F0A601ADD221E030E0892B11F420E030E0FA
S113030088279927821B930B0F90DF91CF911F9120
S11303100F91FF90EF90DF90CF90BF90AF909F90A0
S11303208F9008954F925F926F927F928F929F92D7
S1130330AF92BF92CF92DF92EF92FF920F931F93EF
S11303408901FC0185849684A784B0882A013B0135
S113035025E076946794579447942A95D1F77501CC
S1130360640135E0F694E794D794C7943A95D1F7AD
S1130370C40CD51CE61CF71CFFE18F229924AA2487
S1130380BB2489288A288B2831F420E2C20ED11C90
S1130390E11CF11C05C0E4E2CE0ED11CE11CF11CF1
S11303A0242F2F71B701A601FAD121E030E0892B67
S11303B011F420E030E088279927821B930B1F91CA
S11303C00F91FF90EF90DF90CF90BF90AF909F90F0
S11303D08F907F906F905F904F900895FC0180E123
S11303E0DF011D928A95E9F7F183E083F383E283C9
S11303F0CF010A9693878287958784877787668754
S113040008958BE190E0B5D5009741F09C012B5EF7
S11304103F4FFC01368B258B308F278B0895FC01D1
S11304208BE1DF011D928A95E9F7CF014596968B02
S1130430858B908F878B0895CF93DF93DC01FB012D
S1130440892B19F1309709F115968C91159791E044
S1130450980F15969C9315978083B28FA18FCB012B
S113046045961A96CD91DC911B979B838A83D68BF4
S1130470C58B9D01265F3F4F308F278B1B969C9326
S11304808E931A97808190E002C08FEF9FEFDF91E7
S1130490CF9108952F923F924F925F926F927F92E5
S11304A08F929F92AF92BF92CF92DF92EF92FF9280
S11304B00F931F93CF93DF9300D000D000D0CDB71C
S11304C0DEB7009709F4DEC09E838D8380911A0104
S11304D090911B019C012F5F3F4F30931B01209390
S11304E01A01AD81BE8114968C931497E091060194
S11304F0F0910701B383A2831196FC93EE9386E0F7
S113050091E013969C938E931297B0930701A09356
S113051006011E96ED91FC911F970484F585E02D4C
S1130520CD0109954B015C01B1E08B1A9108A1083A
S1130530B10822242394322CC12CD12C7601C81466
S1130540D904EA04FB0428F0ED81FE81848190E063
S11305509BC0E1E02E1A3108B9F3AD81BE811E962D
S1130560ED91FC911F970480F581E02DC701B60140
S1130570099569837A838B839C83AD81BE811E96A2
S1130580ED91FC911F970480F581E02DC701B60120
S11305906C5F7F4F8F4F9F4F09952B013C01613258
S11305A071058105910580F22CDF8C0138DF8B8188
S11305B09C81D80112969C938E9311972A8113964D
S11305C02C931397298114962C9314971596CD92F6
S11305D0DD92ED92FC921897F8014186528663866B
S11305E07486AD81BE811E96ED91FC911F970480A7
S11305F0F581E02DC701B601685F7F4F8F4F9F4F94
S11306000995F801658776878787908BAD81BE81D0
S11306101E96ED91FC911F970480F581E02DC70192
S1130620B601645F7F4F8F4F9F4F0995F801618B2F
S1130630728B838B948BB8018D819E81FDDED801F2
S113064011968D919C911297892BB9F4AD81BE813D
S11306501E96ED91FC911F970480F581E02DC70152
S1130660B601605E7F4F8F4F9F4F09954B015C0130
S1130670B1E08B1A9108A108B108C40CD51CE61C82
S1130680F71C5DCF8FEF9FEF26960FB6F894DEBF71
S11306900FBECDBFDF91CF911F910F91FF90EF90CF
S11306A0DF90CF90BF90AF909F908F907F906F908E
S11306B05F904F903F902F900895CF93DF93EC017C
S11306C08AE091E067D06AE071E0CE0187DECE0176
S11306D0E1DE80E090E0DF91CF9108950097A9F0EA
S11306E0DC011A96ED91FC911B9775970A969F0170
S11306F02B5E3F4F2817390741F02081261741F020
S11307000588F689E02D7597F2CF80E090E0089592
S1130710CF0108958FEF08958FEF9FEF08958FEF26
S11307209FEF08958FEF9FEF089560E070E081E000
S113073090E00895E0E2F1E0908381837283638323
S113074024E04CE151E064E0CF01BBD3ECE1F1E003
S113075020816181862F90E0A0E0B0E0DC01992740
S11307608827B22B2381822B2281BC01CD01722BDD
S11307700895E0E2F1E0906890838183728363835B
S1130780548345833683278368E0CF0143D380E0D5
S113079090E00895909329018093280108958F9201
S11307A09F92AF92BF92FF920F931F93CF93DF93C9
S11307B00115110519F48FEF9FEF3FC0E801F22EE8
S11307C04A015B018C012DD2892BA9F320912801C8
S11307D030912901F80185819681A781B085BC01FA
S11307E0CD01680D791D8A1D9B1DD9011496ED91CB
S11307F0FC911597099521E030E002C0220F331FC8
S1130800FA94E2F78901330F220B330BDC01CB019D
S113081080239123A223B32301E010E020E030E001
S1130820892B8A2B8B2B19F400E010E098010883A4
S113083019832A833B8380E090E0DF91CF911F915D
S11308400F91FF90BF90AF909F908F9008959F92CB
S1130850AF92BF92CF92DF92EF92FF920F931F93CA
S1130860CF93DF930115110519F48FEF9FEF61C04A
S1130870922E6A017B01EC01D4D1892BB1F3E09172
S11308802801F09129018D819E81AF81B885BC0139
S1130890CD016C0D7D1D8E1D9F1D0480F581E02D05
S11308A00995F8012081222399F001E010E09801D4
S11308B002C0220F331F9A94E2F78901330F220BEF
S11308C0330BA9019801262B372B482B592B14C025
S11308D0E1E0F0E002C0EE0FFF1F9A94E2F78F010F
S11308E000951095012E000C220B330BA9019801E1
S11308F02623372348235923FFE768E381E0F15097
S113090060408040E1F700C00000E0912801F091D0
S113091029018D819E81AF81B885BC01CD016C0D0B
S11309207D1D8E1D9F1D0284F385E02D099580E0B9
S113093090E0DF91CF911F910F91FF90EF90DF90A6
S1130940CF90BF90AF909F900895BF92CF92DF92C7
S1130950EF92FF920F931F93CF93DF93011511052D
S113096069F1B22E6A017B01EC015BD1892B31F173
S113097089859A85AB85BC858C159D05AE05BF051B
S1130980E8F084E0B8121AC0E0912801F09129013E
S1130990D8012D913D914D915C918D819E81AF81C6
S11309A0B885BC01CD016C0D7D1D8E1D9F1D02847B
S11309B0F385E02D099584E090E002C08FEF9FEF6E
S11309C0DF91CF911F910F91FF90EF90DF90CF9027
S11309D0BF900895BF92CF92DF92EF92FF920F9350
S11309E01F93CF93DF930115110589F1E801B22E0E
S11309F06A017B018C0115D1892B49F1F8018185AC
S1130A009285A385B4858C159D05AE05BF05F8F0C8
S1130A10F4E0BF121CC02091280130912901F80193
S1130A2085819681A781B085BC01CD016C0D7D1DAA
S1130A308E1D9F1DD9011496ED91FC911597099572
S1130A40688379838A839B8384E090E002C08FEF7C
S1130A509FEFDF91CF911F910F91FF90EF90DF9067
S1130A60CF90BF9008958F929F92AF92BF92CF92F2
S1130A70DF92EF92FF920F931F93CF93DF9300D0F7
S1130A8000D0CDB7DEB76C017B0184E2882E912CB7
S1130A90A12CB12C870124E0B501A401C6019ADF81
S1130AA0049739F5F70181919191A191B1918983CD
S1130AB09A83AB83BC838C81D7018C938B811196F1
S1130AC08C9311978A8112968C931297898113962D
S1130AD08C93B4E08B0E911CA11CB11C80E488168D
S1130AE09104A104B10411F07F01D4CF80E090E01F
S1130AF002C08FEF9FEF0F900F900F900F90DF9138
S1130B00CF911F910F91FF90EF90DF90CF90BF9006
S1130B10AF909F908F9008950F931F938B0124E0C3
S1130B2040E250E060E070E055DF21E030E00497FF
S1130B3011F420E030E088279927821B930B1F9142
S1130B400F9108950F931F93CF93DF9300D000D09C
S1130B50CDB7DEB709831A832B833C83475F5F4F8E
S1130B606F4F7F4F22E0440F551F661F771F2A9552
S1130B70D1F78E010F5F1F4F24E0E7DE21E030E064
S1130B80049711F420E030E088279927821B930B07
S1130B900F900F900F900F90DF91CF911F910F91B5
S1130BA008950F931F93CF93DF9300D000D0CDB758
S1130BB0DEB709831A832B833C83FC0105851685E4
S1130BC027853089075F1F4F2F4F3F4F400F511F1D
S1130BD0621F731F22E0440F551F661F771F2A955B
S1130BE0D1F78E010F5F1F4F24E0AFDE21E030E02C
S1130BF0049711F420E030E088279927821B930B97
S1130C000F900F900F900F90DF91CF911F910F9144
S1130C10089521E030E0892B11F420E030E0C9018F
S1130C20089521E030E0FC01818D928D892B11F42F
S1130C3020E030E0C9010895CF93DF93CDB7DEB74C
S1130C40E5970FB6F894DEBF0FBECDBF19AA1AAA56
S1130C501BAA1CAA40DA80B1886082B980B1846082
S1130C6082B925E82A95F1F7000080B1877F82B91F
S1130C7080B18B7F82B90199FECF39DA7C0163E0C0
S1130C8092DABE016F5F7F4FEEDE62E0C7018BDA5E
S1130C906C01BE016F5C7F4F3FDF00E412E42FE084
S1130CA030E040E050E0BA01C6014CDF00EA16E84B
S1130CB021E030E040E050E0BA01C60172DF61E0BB
S1130CC0C70171DA7C0121E042E050E060E070E0AD
S1130CD097DA21E043E050E060E070E0C70190DA89
S1130CE0812C912C5401772473948FEF881A980ADD
S1130CF0A80AB80A94E189169104A104B10440F049
S1130D0080B18170872582B9812C912C54010BC04C
S1130D102AE082169104A104B10428F008EB15E03E
S1130D2021E030E004C008E314E421E030E040E0D6
S1130D3050E0BA01C60135DF9E012B5C3F4F40E015
S1130D4050E0BA01C701EEDA2DA942E050E060E0BC
S1130D5070E0C70185DA9E012B5C3F4F41E050E013
S1130D6060E070E0C701DEDA2DA943E050E060E006
S1130D7070E0C70175DA8FE798E321E08150904075
S1130D802040E1F700C00000B0CF299890E20000B5
S1130D909150E9F7882311F02A9A01C02A9880E239
S1130DA000008150E9F7299A0895299A80E2000009
S1130DB08150E9F783B183FB882780F990E2000032
S1130DC09150E9F729980895CF93C82F2998881F3F
S1130DD08827881FDADFC6FB882780F9D6DFC5FBA2
S1130DE0882780F9D2DFC4FB882780F9CEDFC3FBD4
S1130DF0882780F9CADFC2FB882780F9C6DFC1FBD8
S1130E00882780F9C2DF8C2F8170BFDF2A98299848
S1130E10CF910895FF920F931F93CF93DF931F9267
S1130E20CDB7DEB728988C01F12CF61691F0FF208F
S1130E3041F08F2D837029F4289A80E28A95F1F786
S1130E402898F80181918F016983BEDFF394698149
S1130E50ECCF289A0F90DF91CF911F910F91FF90C3
S1130E600895CF93DF932998A0DFD82F9EDF20E445
S1130E70829FC001112440E8D49F90011124C82FFF
S1130E80C22B93DF20E2829FC0011124C82B8DDF87
S1130E9040E1849FC0011124C82B87DF28E0829F92
S1130EA0C0011124C82B81DF44E0849FC0011124B8
S1130EB0C82B7BDF880FC82B78DF8C2BDF91CF9179
S1130EC00895CF92DF92EF92FF921F93CF93DF9317
S1130ED000D0CDB7DEB76C017A01122F28981982A1
S1130EE09981961760F48981F601E80FF11D8081DC
S1130EF06A836ADF99819F5F99836A81F1CF289A17
S1130F0080E28A95F1F7299A2898198289818117B4
S1130F1058F489816701C80ED11CA3DFF6018083D0
S1130F2089818F5F8983F2CF289A0F900F90DF9188
S1130F30CF911F91FF90EF90DF90CF9008950F9382
S1130F401F93CF93DF93869F8001879F100D969FF9
S1130F50100D1124C8010DD0EC01009721F0A80157
S1130F6060E070E033D1CE01DF91CF911F910F91FA
S1130F700895CF93DF938230910510F482E090E0DE
S1130F80E0912C01F0912D0120E030E0C0E0D0E0B0
S1130F90309711F14081518148175907C0F0481723
S1130FA0590761F482819381209719F09B838A8386
S1130FB02BC090932D0180932C0126C0211531055F
S1130FC019F04217530718F49A01BE01DF01EF012B
S1130FD00280F381E02DDCCF2115310509F1281BB6
S1130FE0390B2430310590F412968D919C9113970E
S1130FF06115710521F0FB019383828304C09093F2
S11310002D0180932C01FD01329644C0FD01E20FB5
S1131010F31F81939193225031092D933C933AC04D
S113102020912A0130912B01232B41F420910201BC
S11310303091030130932B0120932A012091000168
S1131040309101012115310541F42DB73EB740918E
S1131050040150910501241B350BE0912A01F09104
S11310602B01E217F307A0F42E1B3F0B28173907B7
S113107078F0AC014E5F5F4F2417350748F04E0FF0
S11310805F1F50932B0140932A018193919302C0D7
S1131090E0E0F0E0CF01DF91CF9108950F931F932B
S11310A0CF93DF93009709F48CC0FC01329713822D
S11310B0128200912C0110912D010115110581F46A
S11310C020813181820F931F20912A0130912B01BD
S11310D02817390779F5F0932B01E0932A0171C0A1
S11310E0D80140E050E0AE17BF0750F412962D919E
S11310F03C911397AD012115310509F1D901F3CFC5
S11311009D01DA013383228360817181860F971FE9
S11311108217930769F4EC0128813981260F371F60
S11311202E5F3F4F318320838A819B819383828307
S1131130452B29F4F0932D01E0932C0142C0139622
S1131140FC93EE931297ED01499159919E01240F5E
S1131150351FE217F30771F480819181840F951F85
S1131160029611969C938E938281938113969C93FD
S11311708E931297E0E0F0E0D80112968D919C9145
S11311801397009719F0F8018C01F6CF8D919C917B
S113119098012E5F3F4F820F931F20912A013091B7
S11311A02B012817390769F4309729F410922D017F
S11311B010922C0102C01382128210932B0100930F
S11311C02A01DF91CF911F910F910895DC0101C095
S11111D06D9341505040E0F70895F894FFCF1E
S11311DE00002E012000060106018A038C039A03E7
S10B11EE8F039203B90395037A
S9030000FC
